{
  "address": "0xe7f1725E7734CE288F8367e1Bb143E90bb3F0512",
  "abi": [
    {
      "inputs": [
        {
          "internalType": "address payable",
          "name": "_receiver",
          "type": "address"
        },
        {
          "internalType": "address",
          "name": "_tokenContract",
          "type": "address"
        },
        {
          "internalType": "string",
          "name": "_name",
          "type": "string"
        },
        {
          "internalType": "string",
          "name": "_symbol",
          "type": "string"
        }
      ],
      "stateMutability": "nonpayable",
      "type": "constructor"
    },
    {
      "anonymous": false,
      "inputs": [
        {
          "indexed": true,
          "internalType": "address",
          "name": "owner",
          "type": "address"
        },
        {
          "indexed": true,
          "internalType": "address",
          "name": "approved",
          "type": "address"
        },
        {
          "indexed": true,
          "internalType": "uint256",
          "name": "tokenId",
          "type": "uint256"
        }
      ],
      "name": "Approval",
      "type": "event"
    },
    {
      "anonymous": false,
      "inputs": [
        {
          "indexed": true,
          "internalType": "address",
          "name": "owner",
          "type": "address"
        },
        {
          "indexed": true,
          "internalType": "address",
          "name": "operator",
          "type": "address"
        },
        {
          "indexed": false,
          "internalType": "bool",
          "name": "approved",
          "type": "bool"
        }
      ],
      "name": "ApprovalForAll",
      "type": "event"
    },
    {
      "anonymous": false,
      "inputs": [
        {
          "indexed": true,
          "internalType": "address",
          "name": "from",
          "type": "address"
        },
        {
          "indexed": true,
          "internalType": "address",
          "name": "to",
          "type": "address"
        },
        {
          "indexed": true,
          "internalType": "uint256",
          "name": "tokenId",
          "type": "uint256"
        }
      ],
      "name": "Transfer",
      "type": "event"
    },
    {
      "inputs": [
        {
          "internalType": "address",
          "name": "to",
          "type": "address"
        },
        {
          "internalType": "uint256",
          "name": "tokenId",
          "type": "uint256"
        }
      ],
      "name": "approve",
      "outputs": [],
      "stateMutability": "nonpayable",
      "type": "function"
    },
    {
      "inputs": [
        {
          "internalType": "address",
          "name": "owner",
          "type": "address"
        }
      ],
      "name": "balanceOf",
      "outputs": [
        {
          "internalType": "uint256",
          "name": "",
          "type": "uint256"
        }
      ],
      "stateMutability": "view",
      "type": "function"
    },
    {
      "inputs": [
        {
          "internalType": "uint256",
          "name": "tokenId",
          "type": "uint256"
        }
      ],
      "name": "getApproved",
      "outputs": [
        {
          "internalType": "address",
          "name": "",
          "type": "address"
        }
      ],
      "stateMutability": "view",
      "type": "function"
    },
    {
      "inputs": [],
      "name": "getBalance",
      "outputs": [
        {
          "internalType": "uint256",
          "name": "",
          "type": "uint256"
        }
      ],
      "stateMutability": "view",
      "type": "function"
    },
    {
      "inputs": [
        {
          "internalType": "uint256",
          "name": "_id",
          "type": "uint256"
        }
      ],
      "name": "getJob",
      "outputs": [
        {
          "components": [
            {
              "internalType": "uint256",
              "name": "id",
              "type": "uint256"
            },
            {
              "internalType": "string",
              "name": "name",
              "type": "string"
            },
            {
              "internalType": "uint256",
              "name": "cost",
              "type": "uint256"
            },
            {
              "internalType": "bool",
              "name": "isOwned",
              "type": "bool"
            }
          ],
          "internalType": "struct JobMarketplace.Job",
          "name": "",
          "type": "tuple"
        }
      ],
      "stateMutability": "view",
      "type": "function"
    },
    {
      "inputs": [
        {
          "internalType": "address",
          "name": "owner",
          "type": "address"
        },
        {
          "internalType": "address",
          "name": "operator",
          "type": "address"
        }
      ],
      "name": "isApprovedForAll",
      "outputs": [
        {
          "internalType": "bool",
          "name": "",
          "type": "bool"
        }
      ],
      "stateMutability": "view",
      "type": "function"
    },
    {
      "inputs": [
        {
          "internalType": "string",
          "name": "_name",
          "type": "string"
        },
        {
          "internalType": "uint256",
          "name": "_cost",
          "type": "uint256"
        }
      ],
      "name": "list",
      "outputs": [],
      "stateMutability": "nonpayable",
      "type": "function"
    },
    {
      "inputs": [],
      "name": "maxSupply",
      "outputs": [
        {
          "internalType": "uint256",
          "name": "",
          "type": "uint256"
        }
      ],
      "stateMutability": "view",
      "type": "function"
    },
    {
      "inputs": [
        {
          "internalType": "uint256",
          "name": "_id",
          "type": "uint256"
        }
      ],
      "name": "mint",
      "outputs": [],
      "stateMutability": "payable",
      "type": "function"
    },
    {
      "inputs": [],
      "name": "name",
      "outputs": [
        {
          "internalType": "string",
          "name": "",
          "type": "string"
        }
      ],
      "stateMutability": "view",
      "type": "function"
    },
    {
      "inputs": [],
      "name": "owner",
      "outputs": [
        {
          "internalType": "address",
          "name": "",
          "type": "address"
        }
      ],
      "stateMutability": "view",
      "type": "function"
    },
    {
      "inputs": [
        {
          "internalType": "uint256",
          "name": "tokenId",
          "type": "uint256"
        }
      ],
      "name": "ownerOf",
      "outputs": [
        {
          "internalType": "address",
          "name": "",
          "type": "address"
        }
      ],
      "stateMutability": "view",
      "type": "function"
    },
    {
      "inputs": [
        {
          "internalType": "address",
          "name": "from",
          "type": "address"
        },
        {
          "internalType": "address",
          "name": "to",
          "type": "address"
        },
        {
          "internalType": "uint256",
          "name": "tokenId",
          "type": "uint256"
        }
      ],
      "name": "safeTransferFrom",
      "outputs": [],
      "stateMutability": "nonpayable",
      "type": "function"
    },
    {
      "inputs": [
        {
          "internalType": "address",
          "name": "from",
          "type": "address"
        },
        {
          "internalType": "address",
          "name": "to",
          "type": "address"
        },
        {
          "internalType": "uint256",
          "name": "tokenId",
          "type": "uint256"
        },
        {
          "internalType": "bytes",
          "name": "data",
          "type": "bytes"
        }
      ],
      "name": "safeTransferFrom",
      "outputs": [],
      "stateMutability": "nonpayable",
      "type": "function"
    },
    {
      "inputs": [
        {
          "internalType": "address",
          "name": "operator",
          "type": "address"
        },
        {
          "internalType": "bool",
          "name": "approved",
          "type": "bool"
        }
      ],
      "name": "setApprovalForAll",
      "outputs": [],
      "stateMutability": "nonpayable",
      "type": "function"
    },
    {
      "inputs": [
        {
          "internalType": "bytes4",
          "name": "interfaceId",
          "type": "bytes4"
        }
      ],
      "name": "supportsInterface",
      "outputs": [
        {
          "internalType": "bool",
          "name": "",
          "type": "bool"
        }
      ],
      "stateMutability": "view",
      "type": "function"
    },
    {
      "inputs": [],
      "name": "symbol",
      "outputs": [
        {
          "internalType": "string",
          "name": "",
          "type": "string"
        }
      ],
      "stateMutability": "view",
      "type": "function"
    },
    {
      "inputs": [
        {
          "internalType": "uint256",
          "name": "tokenId",
          "type": "uint256"
        }
      ],
      "name": "tokenURI",
      "outputs": [
        {
          "internalType": "string",
          "name": "",
          "type": "string"
        }
      ],
      "stateMutability": "view",
      "type": "function"
    },
    {
      "inputs": [],
      "name": "totalSupply",
      "outputs": [
        {
          "internalType": "uint256",
          "name": "",
          "type": "uint256"
        }
      ],
      "stateMutability": "view",
      "type": "function"
    },
    {
      "inputs": [
        {
          "internalType": "address",
          "name": "from",
          "type": "address"
        },
        {
          "internalType": "address",
          "name": "to",
          "type": "address"
        },
        {
          "internalType": "uint256",
          "name": "tokenId",
          "type": "uint256"
        }
      ],
      "name": "transferFrom",
      "outputs": [],
      "stateMutability": "nonpayable",
      "type": "function"
    },
    {
      "inputs": [],
      "name": "withdraw",
      "outputs": [],
      "stateMutability": "nonpayable",
      "type": "function"
    }
  ],
  "transactionHash": "0x27f4f2d00500138cc6e1f367d2edfda7e483f1f73fe2d4dc03a56e9f9183cb0b",
  "args": [
    "0x70997970C51812dc3A010C7d01b50e0d17dc79C8",
    "0x5FbDB2315678afecb367f032d93F642f64180aa3",
    "Job Marketplace",
    "JOBMP"
  ],
  "numDeployments": 1,
  "solcInputHash": "49c7d1352d07655bd1ed13b97fb17850",
  "bytecode": "0x60806040523480156200001157600080fd5b5060405162003bb638038062003bb6833981810160405281019062000037919062000369565b818181600090816200004a919062000664565b5080600190816200005c919062000664565b50505033600860006101000a81548173ffffffffffffffffffffffffffffffffffffffff021916908373ffffffffffffffffffffffffffffffffffffffff16021790555082600960006101000a81548173ffffffffffffffffffffffffffffffffffffffff021916908373ffffffffffffffffffffffffffffffffffffffff16021790555083600a60006101000a81548173ffffffffffffffffffffffffffffffffffffffff021916908373ffffffffffffffffffffffffffffffffffffffff160217905550505050506200074b565b6000604051905090565b600080fd5b600080fd5b600073ffffffffffffffffffffffffffffffffffffffff82169050919050565b60006200016d8262000140565b9050919050565b6200017f8162000160565b81146200018b57600080fd5b50565b6000815190506200019f8162000174565b92915050565b6000620001b28262000140565b9050919050565b620001c481620001a5565b8114620001d057600080fd5b50565b600081519050620001e481620001b9565b92915050565b600080fd5b600080fd5b6000601f19601f8301169050919050565b7f4e487b7100000000000000000000000000000000000000000000000000000000600052604160045260246000fd5b6200023f82620001f4565b810181811067ffffffffffffffff8211171562000261576200026062000205565b5b80604052505050565b6000620002766200012c565b905062000284828262000234565b919050565b600067ffffffffffffffff821115620002a757620002a662000205565b5b620002b282620001f4565b9050602081019050919050565b60005b83811015620002df578082015181840152602081019050620002c2565b60008484015250505050565b600062000302620002fc8462000289565b6200026a565b905082815260208101848484011115620003215762000320620001ef565b5b6200032e848285620002bf565b509392505050565b600082601f8301126200034e576200034d620001ea565b5b815162000360848260208601620002eb565b91505092915050565b6000806000806080858703121562000386576200038562000136565b5b600062000396878288016200018e565b9450506020620003a987828801620001d3565b935050604085015167ffffffffffffffff811115620003cd57620003cc6200013b565b5b620003db8782880162000336565b925050606085015167ffffffffffffffff811115620003ff57620003fe6200013b565b5b6200040d8782880162000336565b91505092959194509250565b600081519050919050565b7f4e487b7100000000000000000000000000000000000000000000000000000000600052602260045260246000fd5b600060028204905060018216806200046c57607f821691505b60208210810362000482576200048162000424565b5b50919050565b60008190508160005260206000209050919050565b60006020601f8301049050919050565b600082821b905092915050565b600060088302620004ec7fffffffffffffffffffffffffffffffffffffffffffffffffffffffffffffffff82620004ad565b620004f88683620004ad565b95508019841693508086168417925050509392505050565b6000819050919050565b6000819050919050565b6000620005456200053f620005398462000510565b6200051a565b62000510565b9050919050565b6000819050919050565b620005618362000524565b6200057962000570826200054c565b848454620004ba565b825550505050565b600090565b6200059062000581565b6200059d81848462000556565b505050565b5b81811015620005c557620005b960008262000586565b600181019050620005a3565b5050565b601f8211156200061457620005de8162000488565b620005e9846200049d565b81016020851015620005f9578190505b6200061162000608856200049d565b830182620005a2565b50505b505050565b600082821c905092915050565b6000620006396000198460080262000619565b1980831691505092915050565b600062000654838362000626565b9150826002028217905092915050565b6200066f8262000419565b67ffffffffffffffff8111156200068b576200068a62000205565b5b62000697825462000453565b620006a4828285620005c9565b600060209050601f831160018114620006dc5760008415620006c7578287015190505b620006d3858262000646565b86555062000743565b601f198416620006ec8662000488565b60005b828110156200071657848901518255600182019150602085019450602081019050620006ef565b8683101562000736578489015162000732601f89168262000626565b8355505b6001600288020188555050505b505050505050565b61345b806200075b6000396000f3fe60806040526004361061012a5760003560e01c80636352211e116100ab578063a22cb4651161006f578063a22cb465146103d1578063b88d4fde146103fa578063bf22c45714610423578063c87b56dd14610460578063d5abeb011461049d578063e985e9c5146104c85761012a565b80636352211e146102e557806370a08231146103225780638da5cb5b1461035f57806395d89b411461038a578063a0712d68146103b55761012a565b806318160ddd116100f257806318160ddd1461022857806323b872dd146102535780633ccfd60b1461027c57806342842e0e146102935780634a878dfa146102bc5761012a565b806301ffc9a71461012f57806306fdde031461016c578063081812fc14610197578063095ea7b3146101d457806312065fe0146101fd575b600080fd5b34801561013b57600080fd5b506101566004803603810190610151919061206b565b610505565b60405161016391906120b3565b60405180910390f35b34801561017857600080fd5b506101816105e7565b60405161018e919061215e565b60405180910390f35b3480156101a357600080fd5b506101be60048036038101906101b991906121b6565b610679565b6040516101cb9190612224565b60405180910390f35b3480156101e057600080fd5b506101fb60048036038101906101f6919061226b565b6106bf565b005b34801561020957600080fd5b506102126107d6565b60405161021f91906122ba565b60405180910390f35b34801561023457600080fd5b5061023d6107de565b60405161024a91906122ba565b60405180910390f35b34801561025f57600080fd5b5061027a600480360381019061027591906122d5565b6107e4565b005b34801561028857600080fd5b50610291610844565b005b34801561029f57600080fd5b506102ba60048036038101906102b591906122d5565b610939565b005b3480156102c857600080fd5b506102e360048036038101906102de919061245d565b610959565b005b3480156102f157600080fd5b5061030c600480360381019061030791906121b6565b610a57565b6040516103199190612224565b60405180910390f35b34801561032e57600080fd5b50610349600480360381019061034491906124b9565b610add565b60405161035691906122ba565b60405180910390f35b34801561036b57600080fd5b50610374610b94565b6040516103819190612224565b60405180910390f35b34801561039657600080fd5b5061039f610bba565b6040516103ac919061215e565b60405180910390f35b6103cf60048036038101906103ca91906121b6565b610c4c565b005b3480156103dd57600080fd5b506103f860048036038101906103f39190612512565b610e7f565b005b34801561040657600080fd5b50610421600480360381019061041c91906125f3565b610e95565b005b34801561042f57600080fd5b5061044a600480360381019061044591906121b6565b610ef7565b6040516104579190612741565b60405180910390f35b34801561046c57600080fd5b50610487600480360381019061048291906121b6565b610fe5565b604051610494919061215e565b60405180910390f35b3480156104a957600080fd5b506104b261104d565b6040516104bf91906122ba565b60405180910390f35b3480156104d457600080fd5b506104ef60048036038101906104ea9190612763565b611053565b6040516104fc91906120b3565b60405180910390f35b60007f80ac58cd000000000000000000000000000000000000000000000000000000007bffffffffffffffffffffffffffffffffffffffffffffffffffffffff1916827bffffffffffffffffffffffffffffffffffffffffffffffffffffffff191614806105d057507f5b5e139f000000000000000000000000000000000000000000000000000000007bffffffffffffffffffffffffffffffffffffffffffffffffffffffff1916827bffffffffffffffffffffffffffffffffffffffffffffffffffffffff1916145b806105e057506105df826110e7565b5b9050919050565b6060600080546105f6906127d2565b80601f0160208091040260200160405190810160405280929190818152602001828054610622906127d2565b801561066f5780601f106106445761010080835404028352916020019161066f565b820191906000526020600020905b81548152906001019060200180831161065257829003601f168201915b5050505050905090565b600061068482611151565b6004600083815260200190815260200160002060009054906101000a900473ffffffffffffffffffffffffffffffffffffffff169050919050565b60006106ca82610a57565b90508073ffffffffffffffffffffffffffffffffffffffff168373ffffffffffffffffffffffffffffffffffffffff160361073a576040517f08c379a000000000000000000000000000000000000000000000000000000000815260040161073190612875565b60405180910390fd5b8073ffffffffffffffffffffffffffffffffffffffff1661075961119c565b73ffffffffffffffffffffffffffffffffffffffff16148061078857506107878161078261119c565b611053565b5b6107c7576040517f08c379a00000000000000000000000000000000000000000000000000000000081526004016107be90612907565b60405180910390fd5b6107d183836111a4565b505050565b600047905090565b60075481565b6107f56107ef61119c565b8261125d565b610834576040517f08c379a000000000000000000000000000000000000000000000000000000000815260040161082b90612999565b60405180910390fd5b61083f8383836112f2565b505050565b600860009054906101000a900473ffffffffffffffffffffffffffffffffffffffff1673ffffffffffffffffffffffffffffffffffffffff163373ffffffffffffffffffffffffffffffffffffffff161461089e57600080fd5b6000600860009054906101000a900473ffffffffffffffffffffffffffffffffffffffff1673ffffffffffffffffffffffffffffffffffffffff16476040516108e6906129ea565b60006040518083038185875af1925050503d8060008114610923576040519150601f19603f3d011682016040523d82523d6000602084013e610928565b606091505b505090508061093657600080fd5b50565b61095483838360405180602001604052806000815250610e95565b505050565b600860009054906101000a900473ffffffffffffffffffffffffffffffffffffffff1673ffffffffffffffffffffffffffffffffffffffff163373ffffffffffffffffffffffffffffffffffffffff16146109b357600080fd5b600660008154809291906109c690612a2e565b91905055506040518060800160405280600654815260200183815260200182815260200160001515815250600b60006006548152602001908152602001600020600082015181600001556020820151816001019081610a259190612c22565b506040820151816002015560608201518160030160006101000a81548160ff0219169083151502179055509050505050565b600080610a63836115eb565b9050600073ffffffffffffffffffffffffffffffffffffffff168173ffffffffffffffffffffffffffffffffffffffff1603610ad4576040517f08c379a0000000000000000000000000000000000000000000000000000000008152600401610acb90612d40565b60405180910390fd5b80915050919050565b60008073ffffffffffffffffffffffffffffffffffffffff168273ffffffffffffffffffffffffffffffffffffffff1603610b4d576040517f08c379a0000000000000000000000000000000000000000000000000000000008152600401610b4490612dd2565b60405180910390fd5b600360008373ffffffffffffffffffffffffffffffffffffffff1673ffffffffffffffffffffffffffffffffffffffff168152602001908152602001600020549050919050565b600860009054906101000a900473ffffffffffffffffffffffffffffffffffffffff1681565b606060018054610bc9906127d2565b80601f0160208091040260200160405190810160405280929190818152602001828054610bf5906127d2565b8015610c425780601f10610c1757610100808354040283529160200191610c42565b820191906000526020600020905b815481529060010190602001808311610c2557829003601f168201915b5050505050905090565b60008103610c5957600080fd5b600654811115610c6857600080fd5b60001515600b600083815260200190815260200160002060030160009054906101000a900460ff16151514610c9c57600080fd5b600b600082815260200190815260200160002060020154341015610cbf57600080fd5b6001600b600083815260200190815260200160002060030160006101000a81548160ff02191690831515021790555060076000815480929190610d0190612a2e565b9190505550610d103382611628565b6000600960009054906101000a900473ffffffffffffffffffffffffffffffffffffffff1690508073ffffffffffffffffffffffffffffffffffffffff1663095ea7b3600a60009054906101000a900473ffffffffffffffffffffffffffffffffffffffff16600b6040518363ffffffff1660e01b8152600401610d95929190612e82565b6020604051808303816000875af1158015610db4573d6000803e3d6000fd5b505050506040513d601f19601f82011682018060405250810190610dd89190612ec0565b508073ffffffffffffffffffffffffffffffffffffffff1663a9059cbb600a60009054906101000a900473ffffffffffffffffffffffffffffffffffffffff16600a6040518363ffffffff1660e01b8152600401610e37929190612f28565b6020604051808303816000875af1158015610e56573d6000803e3d6000fd5b505050506040513d601f19601f82011682018060405250810190610e7a9190612ec0565b505050565b610e91610e8a61119c565b8383611646565b5050565b610ea6610ea061119c565b8361125d565b610ee5576040517f08c379a0000000000000000000000000000000000000000000000000000000008152600401610edc90612999565b60405180910390fd5b610ef1848484846117b2565b50505050565b610eff611fd5565b600b600083815260200190815260200160002060405180608001604052908160008201548152602001600182018054610f37906127d2565b80601f0160208091040260200160405190810160405280929190818152602001828054610f63906127d2565b8015610fb05780601f10610f8557610100808354040283529160200191610fb0565b820191906000526020600020905b815481529060010190602001808311610f9357829003601f168201915b50505050508152602001600282015481526020016003820160009054906101000a900460ff1615151515815250509050919050565b6060610ff082611151565b6000610ffa61180e565b9050600081511161101a5760405180602001604052806000815250611045565b8061102484611825565b604051602001611035929190612f8d565b6040516020818303038152906040525b915050919050565b60065481565b6000600560008473ffffffffffffffffffffffffffffffffffffffff1673ffffffffffffffffffffffffffffffffffffffff16815260200190815260200160002060008373ffffffffffffffffffffffffffffffffffffffff1673ffffffffffffffffffffffffffffffffffffffff16815260200190815260200160002060009054906101000a900460ff16905092915050565b60007f01ffc9a7000000000000000000000000000000000000000000000000000000007bffffffffffffffffffffffffffffffffffffffffffffffffffffffff1916827bffffffffffffffffffffffffffffffffffffffffffffffffffffffff1916149050919050565b61115a816118f3565b611199576040517f08c379a000000000000000000000000000000000000000000000000000000000815260040161119090612d40565b60405180910390fd5b50565b600033905090565b816004600083815260200190815260200160002060006101000a81548173ffffffffffffffffffffffffffffffffffffffff021916908373ffffffffffffffffffffffffffffffffffffffff160217905550808273ffffffffffffffffffffffffffffffffffffffff1661121783610a57565b73ffffffffffffffffffffffffffffffffffffffff167f8c5be1e5ebec7d5bd14f71427d1e84f3dd0314c0f7b2291e5b200ac8c7c3b92560405160405180910390a45050565b60008061126983610a57565b90508073ffffffffffffffffffffffffffffffffffffffff168473ffffffffffffffffffffffffffffffffffffffff1614806112ab57506112aa8185611053565b5b806112e957508373ffffffffffffffffffffffffffffffffffffffff166112d184610679565b73ffffffffffffffffffffffffffffffffffffffff16145b91505092915050565b8273ffffffffffffffffffffffffffffffffffffffff1661131282610a57565b73ffffffffffffffffffffffffffffffffffffffff1614611368576040517f08c379a000000000000000000000000000000000000000000000000000000000815260040161135f90613023565b60405180910390fd5b600073ffffffffffffffffffffffffffffffffffffffff168273ffffffffffffffffffffffffffffffffffffffff16036113d7576040517f08c379a00000000000000000000000000000000000000000000000000000000081526004016113ce906130b5565b60405180910390fd5b6113e48383836001611934565b8273ffffffffffffffffffffffffffffffffffffffff1661140482610a57565b73ffffffffffffffffffffffffffffffffffffffff161461145a576040517f08c379a000000000000000000000000000000000000000000000000000000000815260040161145190613023565b60405180910390fd5b6004600082815260200190815260200160002060006101000a81549073ffffffffffffffffffffffffffffffffffffffff02191690556001600360008573ffffffffffffffffffffffffffffffffffffffff1673ffffffffffffffffffffffffffffffffffffffff168152602001908152602001600020600082825403925050819055506001600360008473ffffffffffffffffffffffffffffffffffffffff1673ffffffffffffffffffffffffffffffffffffffff16815260200190815260200160002060008282540192505081905550816002600083815260200190815260200160002060006101000a81548173ffffffffffffffffffffffffffffffffffffffff021916908373ffffffffffffffffffffffffffffffffffffffff160217905550808273ffffffffffffffffffffffffffffffffffffffff168473ffffffffffffffffffffffffffffffffffffffff167fddf252ad1be2c89b69c2b068fc378daa952ba7f163c4a11628f55a4df523b3ef60405160405180910390a46115e68383836001611a5a565b505050565b60006002600083815260200190815260200160002060009054906101000a900473ffffffffffffffffffffffffffffffffffffffff169050919050565b611642828260405180602001604052806000815250611a60565b5050565b8173ffffffffffffffffffffffffffffffffffffffff168373ffffffffffffffffffffffffffffffffffffffff16036116b4576040517f08c379a00000000000000000000000000000000000000000000000000000000081526004016116ab90613121565b60405180910390fd5b80600560008573ffffffffffffffffffffffffffffffffffffffff1673ffffffffffffffffffffffffffffffffffffffff16815260200190815260200160002060008473ffffffffffffffffffffffffffffffffffffffff1673ffffffffffffffffffffffffffffffffffffffff16815260200190815260200160002060006101000a81548160ff0219169083151502179055508173ffffffffffffffffffffffffffffffffffffffff168373ffffffffffffffffffffffffffffffffffffffff167f17307eab39ab6107e8899845ad3d59bd9653f200f220920489ca2b5937696c31836040516117a591906120b3565b60405180910390a3505050565b6117bd8484846112f2565b6117c984848484611abb565b611808576040517f08c379a00000000000000000000000000000000000000000000000000000000081526004016117ff906131b3565b60405180910390fd5b50505050565b606060405180602001604052806000815250905090565b60606000600161183484611c42565b01905060008167ffffffffffffffff81111561185357611852612332565b5b6040519080825280601f01601f1916602001820160405280156118855781602001600182028036833780820191505090505b509050600082602001820190505b6001156118e8578080600190039150507f3031323334353637383961626364656600000000000000000000000000000000600a86061a8153600a85816118dc576118db6131d3565b5b04945060008503611893575b819350505050919050565b60008073ffffffffffffffffffffffffffffffffffffffff16611915836115eb565b73ffffffffffffffffffffffffffffffffffffffff1614159050919050565b6001811115611a5457600073ffffffffffffffffffffffffffffffffffffffff168473ffffffffffffffffffffffffffffffffffffffff16146119c85780600360008673ffffffffffffffffffffffffffffffffffffffff1673ffffffffffffffffffffffffffffffffffffffff16815260200190815260200160002060008282546119c09190613202565b925050819055505b600073ffffffffffffffffffffffffffffffffffffffff168373ffffffffffffffffffffffffffffffffffffffff1614611a535780600360008573ffffffffffffffffffffffffffffffffffffffff1673ffffffffffffffffffffffffffffffffffffffff1681526020019081526020016000206000828254611a4b9190613236565b925050819055505b5b50505050565b50505050565b611a6a8383611d95565b611a776000848484611abb565b611ab6576040517f08c379a0000000000000000000000000000000000000000000000000000000008152600401611aad906131b3565b60405180910390fd5b505050565b6000611adc8473ffffffffffffffffffffffffffffffffffffffff16611fb2565b15611c35578373ffffffffffffffffffffffffffffffffffffffff1663150b7a02611b0561119c565b8786866040518563ffffffff1660e01b8152600401611b2794939291906132bf565b6020604051808303816000875af1925050508015611b6357506040513d601f19601f82011682018060405250810190611b609190613320565b60015b611be5573d8060008114611b93576040519150601f19603f3d011682016040523d82523d6000602084013e611b98565b606091505b506000815103611bdd576040517f08c379a0000000000000000000000000000000000000000000000000000000008152600401611bd4906131b3565b60405180910390fd5b805181602001fd5b63150b7a0260e01b7bffffffffffffffffffffffffffffffffffffffffffffffffffffffff1916817bffffffffffffffffffffffffffffffffffffffffffffffffffffffff191614915050611c3a565b600190505b949350505050565b600080600090507a184f03e93ff9f4daa797ed6e38ed64bf6a1f0100000000000000008310611ca0577a184f03e93ff9f4daa797ed6e38ed64bf6a1f0100000000000000008381611c9657611c956131d3565b5b0492506040810190505b6d04ee2d6d415b85acef81000000008310611cdd576d04ee2d6d415b85acef81000000008381611cd357611cd26131d3565b5b0492506020810190505b662386f26fc100008310611d0c57662386f26fc100008381611d0257611d016131d3565b5b0492506010810190505b6305f5e1008310611d35576305f5e1008381611d2b57611d2a6131d3565b5b0492506008810190505b6127108310611d5a576127108381611d5057611d4f6131d3565b5b0492506004810190505b60648310611d7d5760648381611d7357611d726131d3565b5b0492506002810190505b600a8310611d8c576001810190505b80915050919050565b600073ffffffffffffffffffffffffffffffffffffffff168273ffffffffffffffffffffffffffffffffffffffff1603611e04576040517f08c379a0000000000000000000000000000000000000000000000000000000008152600401611dfb90613399565b60405180910390fd5b611e0d816118f3565b15611e4d576040517f08c379a0000000000000000000000000000000000000000000000000000000008152600401611e4490613405565b60405180910390fd5b611e5b600083836001611934565b611e64816118f3565b15611ea4576040517f08c379a0000000000000000000000000000000000000000000000000000000008152600401611e9b90613405565b60405180910390fd5b6001600360008473ffffffffffffffffffffffffffffffffffffffff1673ffffffffffffffffffffffffffffffffffffffff16815260200190815260200160002060008282540192505081905550816002600083815260200190815260200160002060006101000a81548173ffffffffffffffffffffffffffffffffffffffff021916908373ffffffffffffffffffffffffffffffffffffffff160217905550808273ffffffffffffffffffffffffffffffffffffffff16600073ffffffffffffffffffffffffffffffffffffffff167fddf252ad1be2c89b69c2b068fc378daa952ba7f163c4a11628f55a4df523b3ef60405160405180910390a4611fae600083836001611a5a565b5050565b6000808273ffffffffffffffffffffffffffffffffffffffff163b119050919050565b60405180608001604052806000815260200160608152602001600081526020016000151581525090565b6000604051905090565b600080fd5b600080fd5b60007fffffffff0000000000000000000000000000000000000000000000000000000082169050919050565b61204881612013565b811461205357600080fd5b50565b6000813590506120658161203f565b92915050565b60006020828403121561208157612080612009565b5b600061208f84828501612056565b91505092915050565b60008115159050919050565b6120ad81612098565b82525050565b60006020820190506120c860008301846120a4565b92915050565b600081519050919050565b600082825260208201905092915050565b60005b838110156121085780820151818401526020810190506120ed565b60008484015250505050565b6000601f19601f8301169050919050565b6000612130826120ce565b61213a81856120d9565b935061214a8185602086016120ea565b61215381612114565b840191505092915050565b600060208201905081810360008301526121788184612125565b905092915050565b6000819050919050565b61219381612180565b811461219e57600080fd5b50565b6000813590506121b08161218a565b92915050565b6000602082840312156121cc576121cb612009565b5b60006121da848285016121a1565b91505092915050565b600073ffffffffffffffffffffffffffffffffffffffff82169050919050565b600061220e826121e3565b9050919050565b61221e81612203565b82525050565b60006020820190506122396000830184612215565b92915050565b61224881612203565b811461225357600080fd5b50565b6000813590506122658161223f565b92915050565b6000806040838503121561228257612281612009565b5b600061229085828601612256565b92505060206122a1858286016121a1565b9150509250929050565b6122b481612180565b82525050565b60006020820190506122cf60008301846122ab565b92915050565b6000806000606084860312156122ee576122ed612009565b5b60006122fc86828701612256565b935050602061230d86828701612256565b925050604061231e868287016121a1565b9150509250925092565b600080fd5b600080fd5b7f4e487b7100000000000000000000000000000000000000000000000000000000600052604160045260246000fd5b61236a82612114565b810181811067ffffffffffffffff8211171561238957612388612332565b5b80604052505050565b600061239c611fff565b90506123a88282612361565b919050565b600067ffffffffffffffff8211156123c8576123c7612332565b5b6123d182612114565b9050602081019050919050565b82818337600083830152505050565b60006124006123fb846123ad565b612392565b90508281526020810184848401111561241c5761241b61232d565b5b6124278482856123de565b509392505050565b600082601f83011261244457612443612328565b5b81356124548482602086016123ed565b91505092915050565b6000806040838503121561247457612473612009565b5b600083013567ffffffffffffffff8111156124925761249161200e565b5b61249e8582860161242f565b92505060206124af858286016121a1565b9150509250929050565b6000602082840312156124cf576124ce612009565b5b60006124dd84828501612256565b91505092915050565b6124ef81612098565b81146124fa57600080fd5b50565b60008135905061250c816124e6565b92915050565b6000806040838503121561252957612528612009565b5b600061253785828601612256565b9250506020612548858286016124fd565b9150509250929050565b600067ffffffffffffffff82111561256d5761256c612332565b5b61257682612114565b9050602081019050919050565b600061259661259184612552565b612392565b9050828152602081018484840111156125b2576125b161232d565b5b6125bd8482856123de565b509392505050565b600082601f8301126125da576125d9612328565b5b81356125ea848260208601612583565b91505092915050565b6000806000806080858703121561260d5761260c612009565b5b600061261b87828801612256565b945050602061262c87828801612256565b935050604061263d878288016121a1565b925050606085013567ffffffffffffffff81111561265e5761265d61200e565b5b61266a878288016125c5565b91505092959194509250565b61267f81612180565b82525050565b600082825260208201905092915050565b60006126a1826120ce565b6126ab8185612685565b93506126bb8185602086016120ea565b6126c481612114565b840191505092915050565b6126d881612098565b82525050565b60006080830160008301516126f66000860182612676565b506020830151848203602086015261270e8282612696565b91505060408301516127236040860182612676565b50606083015161273660608601826126cf565b508091505092915050565b6000602082019050818103600083015261275b81846126de565b905092915050565b6000806040838503121561277a57612779612009565b5b600061278885828601612256565b925050602061279985828601612256565b9150509250929050565b7f4e487b7100000000000000000000000000000000000000000000000000000000600052602260045260246000fd5b600060028204905060018216806127ea57607f821691505b6020821081036127fd576127fc6127a3565b5b50919050565b7f4552433732313a20617070726f76616c20746f2063757272656e74206f776e6560008201527f7200000000000000000000000000000000000000000000000000000000000000602082015250565b600061285f6021836120d9565b915061286a82612803565b604082019050919050565b6000602082019050818103600083015261288e81612852565b9050919050565b7f4552433732313a20617070726f76652063616c6c6572206973206e6f7420746f60008201527f6b656e206f776e6572206f7220617070726f76656420666f7220616c6c000000602082015250565b60006128f1603d836120d9565b91506128fc82612895565b604082019050919050565b60006020820190508181036000830152612920816128e4565b9050919050565b7f4552433732313a2063616c6c6572206973206e6f7420746f6b656e206f776e6560008201527f72206f7220617070726f76656400000000000000000000000000000000000000602082015250565b6000612983602d836120d9565b915061298e82612927565b604082019050919050565b600060208201905081810360008301526129b281612976565b9050919050565b600081905092915050565b50565b60006129d46000836129b9565b91506129df826129c4565b600082019050919050565b60006129f5826129c7565b9150819050919050565b7f4e487b7100000000000000000000000000000000000000000000000000000000600052601160045260246000fd5b6000612a3982612180565b91507fffffffffffffffffffffffffffffffffffffffffffffffffffffffffffffffff8203612a6b57612a6a6129ff565b5b600182019050919050565b60008190508160005260206000209050919050565b60006020601f8301049050919050565b600082821b905092915050565b600060088302612ad87fffffffffffffffffffffffffffffffffffffffffffffffffffffffffffffffff82612a9b565b612ae28683612a9b565b95508019841693508086168417925050509392505050565b6000819050919050565b6000612b1f612b1a612b1584612180565b612afa565b612180565b9050919050565b6000819050919050565b612b3983612b04565b612b4d612b4582612b26565b848454612aa8565b825550505050565b600090565b612b62612b55565b612b6d818484612b30565b505050565b5b81811015612b9157612b86600082612b5a565b600181019050612b73565b5050565b601f821115612bd657612ba781612a76565b612bb084612a8b565b81016020851015612bbf578190505b612bd3612bcb85612a8b565b830182612b72565b50505b505050565b600082821c905092915050565b6000612bf960001984600802612bdb565b1980831691505092915050565b6000612c128383612be8565b9150826002028217905092915050565b612c2b826120ce565b67ffffffffffffffff811115612c4457612c43612332565b5b612c4e82546127d2565b612c59828285612b95565b600060209050601f831160018114612c8c5760008415612c7a578287015190505b612c848582612c06565b865550612cec565b601f198416612c9a86612a76565b60005b82811015612cc257848901518255600182019150602085019450602081019050612c9d565b86831015612cdf5784890151612cdb601f891682612be8565b8355505b6001600288020188555050505b505050505050565b7f4552433732313a20696e76616c696420746f6b656e2049440000000000000000600082015250565b6000612d2a6018836120d9565b9150612d3582612cf4565b602082019050919050565b60006020820190508181036000830152612d5981612d1d565b9050919050565b7f4552433732313a2061646472657373207a65726f206973206e6f74206120766160008201527f6c6964206f776e65720000000000000000000000000000000000000000000000602082015250565b6000612dbc6029836120d9565b9150612dc782612d60565b604082019050919050565b60006020820190508181036000830152612deb81612daf565b9050919050565b6000612e0d612e08612e03846121e3565b612afa565b6121e3565b9050919050565b6000612e1f82612df2565b9050919050565b6000612e3182612e14565b9050919050565b612e4181612e26565b82525050565b6000819050919050565b6000612e6c612e67612e6284612e47565b612afa565b612180565b9050919050565b612e7c81612e51565b82525050565b6000604082019050612e976000830185612e38565b612ea46020830184612e73565b9392505050565b600081519050612eba816124e6565b92915050565b600060208284031215612ed657612ed5612009565b5b6000612ee484828501612eab565b91505092915050565b6000819050919050565b6000612f12612f0d612f0884612eed565b612afa565b612180565b9050919050565b612f2281612ef7565b82525050565b6000604082019050612f3d6000830185612e38565b612f4a6020830184612f19565b9392505050565b600081905092915050565b6000612f67826120ce565b612f718185612f51565b9350612f818185602086016120ea565b80840191505092915050565b6000612f998285612f5c565b9150612fa58284612f5c565b91508190509392505050565b7f4552433732313a207472616e736665722066726f6d20696e636f72726563742060008201527f6f776e6572000000000000000000000000000000000000000000000000000000602082015250565b600061300d6025836120d9565b915061301882612fb1565b604082019050919050565b6000602082019050818103600083015261303c81613000565b9050919050565b7f4552433732313a207472616e7366657220746f20746865207a65726f2061646460008201527f7265737300000000000000000000000000000000000000000000000000000000602082015250565b600061309f6024836120d9565b91506130aa82613043565b604082019050919050565b600060208201905081810360008301526130ce81613092565b9050919050565b7f4552433732313a20617070726f766520746f2063616c6c657200000000000000600082015250565b600061310b6019836120d9565b9150613116826130d5565b602082019050919050565b6000602082019050818103600083015261313a816130fe565b9050919050565b7f4552433732313a207472616e7366657220746f206e6f6e20455243373231526560008201527f63656976657220696d706c656d656e7465720000000000000000000000000000602082015250565b600061319d6032836120d9565b91506131a882613141565b604082019050919050565b600060208201905081810360008301526131cc81613190565b9050919050565b7f4e487b7100000000000000000000000000000000000000000000000000000000600052601260045260246000fd5b600061320d82612180565b915061321883612180565b92508282039050818111156132305761322f6129ff565b5b92915050565b600061324182612180565b915061324c83612180565b9250828201905080821115613264576132636129ff565b5b92915050565b600081519050919050565b600082825260208201905092915050565b60006132918261326a565b61329b8185613275565b93506132ab8185602086016120ea565b6132b481612114565b840191505092915050565b60006080820190506132d46000830187612215565b6132e16020830186612215565b6132ee60408301856122ab565b81810360608301526133008184613286565b905095945050505050565b60008151905061331a8161203f565b92915050565b60006020828403121561333657613335612009565b5b60006133448482850161330b565b91505092915050565b7f4552433732313a206d696e7420746f20746865207a65726f2061646472657373600082015250565b60006133836020836120d9565b915061338e8261334d565b602082019050919050565b600060208201905081810360008301526133b281613376565b9050919050565b7f4552433732313a20746f6b656e20616c7265616479206d696e74656400000000600082015250565b60006133ef601c836120d9565b91506133fa826133b9565b602082019050919050565b6000602082019050818103600083015261341e816133e2565b905091905056fea2646970667358221220abf1bf5995b8473eb787e56a4320845637597a693d0b2cf1871d204062a6028a64736f6c63430008110033",
  "devdoc": {
    "kind": "dev",
    "methods": {
      "approve(address,uint256)": {
        "details": "See {IERC721-approve}."
      },
      "balanceOf(address)": {
        "details": "See {IERC721-balanceOf}."
      },
      "getApproved(uint256)": {
        "details": "See {IERC721-getApproved}."
      },
      "isApprovedForAll(address,address)": {
        "details": "See {IERC721-isApprovedForAll}."
      },
      "name()": {
        "details": "See {IERC721Metadata-name}."
      },
      "ownerOf(uint256)": {
        "details": "See {IERC721-ownerOf}."
      },
      "safeTransferFrom(address,address,uint256)": {
        "details": "See {IERC721-safeTransferFrom}."
      },
      "safeTransferFrom(address,address,uint256,bytes)": {
        "details": "See {IERC721-safeTransferFrom}."
      },
      "setApprovalForAll(address,bool)": {
        "details": "See {IERC721-setApprovalForAll}."
      },
      "supportsInterface(bytes4)": {
        "details": "See {IERC165-supportsInterface}."
      },
      "symbol()": {
        "details": "See {IERC721Metadata-symbol}."
      },
      "tokenURI(uint256)": {
        "details": "See {IERC721Metadata-tokenURI}."
      },
      "transferFrom(address,address,uint256)": {
        "details": "See {IERC721-transferFrom}."
      }
    },
    "version": 1
  },
  "userdoc": {
    "kind": "user",
    "methods": {},
    "version": 1
  },
  "storageLayout": {
    "storage": [
      {
        "astId": 715,
        "contract": "contracts/JobMarketplace.sol:JobMarketplace",
        "label": "_name",
        "offset": 0,
        "slot": "0",
        "type": "t_string_storage"
      },
      {
        "astId": 717,
        "contract": "contracts/JobMarketplace.sol:JobMarketplace",
        "label": "_symbol",
        "offset": 0,
        "slot": "1",
        "type": "t_string_storage"
      },
      {
        "astId": 721,
        "contract": "contracts/JobMarketplace.sol:JobMarketplace",
        "label": "_owners",
        "offset": 0,
        "slot": "2",
        "type": "t_mapping(t_uint256,t_address)"
      },
      {
        "astId": 725,
        "contract": "contracts/JobMarketplace.sol:JobMarketplace",
        "label": "_balances",
        "offset": 0,
        "slot": "3",
        "type": "t_mapping(t_address,t_uint256)"
      },
      {
        "astId": 729,
        "contract": "contracts/JobMarketplace.sol:JobMarketplace",
        "label": "_tokenApprovals",
        "offset": 0,
        "slot": "4",
        "type": "t_mapping(t_uint256,t_address)"
      },
      {
        "astId": 735,
        "contract": "contracts/JobMarketplace.sol:JobMarketplace",
        "label": "_operatorApprovals",
        "offset": 0,
        "slot": "5",
        "type": "t_mapping(t_address,t_mapping(t_address,t_bool))"
      },
      {
        "astId": 3231,
        "contract": "contracts/JobMarketplace.sol:JobMarketplace",
        "label": "maxSupply",
        "offset": 0,
        "slot": "6",
        "type": "t_uint256"
      },
      {
        "astId": 3233,
        "contract": "contracts/JobMarketplace.sol:JobMarketplace",
        "label": "totalSupply",
        "offset": 0,
        "slot": "7",
        "type": "t_uint256"
      },
      {
        "astId": 3235,
        "contract": "contracts/JobMarketplace.sol:JobMarketplace",
        "label": "owner",
        "offset": 0,
        "slot": "8",
        "type": "t_address"
      },
      {
        "astId": 3237,
        "contract": "contracts/JobMarketplace.sol:JobMarketplace",
        "label": "tokenContract",
        "offset": 0,
        "slot": "9",
        "type": "t_address"
      },
      {
        "astId": 3239,
        "contract": "contracts/JobMarketplace.sol:JobMarketplace",
        "label": "receiver",
        "offset": 0,
        "slot": "10",
        "type": "t_address_payable"
      },
      {
        "astId": 3253,
        "contract": "contracts/JobMarketplace.sol:JobMarketplace",
        "label": "jobs",
        "offset": 0,
        "slot": "11",
        "type": "t_mapping(t_uint256,t_struct(Job)3248_storage)"
      }
    ],
    "types": {
      "t_address": {
        "encoding": "inplace",
        "label": "address",
        "numberOfBytes": "20"
      },
      "t_address_payable": {
        "encoding": "inplace",
        "label": "address payable",
        "numberOfBytes": "20"
      },
      "t_bool": {
        "encoding": "inplace",
        "label": "bool",
        "numberOfBytes": "1"
      },
      "t_mapping(t_address,t_bool)": {
        "encoding": "mapping",
        "key": "t_address",
        "label": "mapping(address => bool)",
        "numberOfBytes": "32",
        "value": "t_bool"
      },
      "t_mapping(t_address,t_mapping(t_address,t_bool))": {
        "encoding": "mapping",
        "key": "t_address",
        "label": "mapping(address => mapping(address => bool))",
        "numberOfBytes": "32",
        "value": "t_mapping(t_address,t_bool)"
      },
      "t_mapping(t_address,t_uint256)": {
        "encoding": "mapping",
        "key": "t_address",
        "label": "mapping(address => uint256)",
        "numberOfBytes": "32",
        "value": "t_uint256"
      },
      "t_mapping(t_uint256,t_address)": {
        "encoding": "mapping",
        "key": "t_uint256",
        "label": "mapping(uint256 => address)",
        "numberOfBytes": "32",
        "value": "t_address"
      },
      "t_mapping(t_uint256,t_struct(Job)3248_storage)": {
        "encoding": "mapping",
        "key": "t_uint256",
        "label": "mapping(uint256 => struct JobMarketplace.Job)",
        "numberOfBytes": "32",
        "value": "t_struct(Job)3248_storage"
      },
      "t_string_storage": {
        "encoding": "bytes",
        "label": "string",
        "numberOfBytes": "32"
      },
      "t_struct(Job)3248_storage": {
        "encoding": "inplace",
        "label": "struct JobMarketplace.Job",
        "members": [
          {
            "astId": 3241,
            "contract": "contracts/JobMarketplace.sol:JobMarketplace",
            "label": "id",
            "offset": 0,
            "slot": "0",
            "type": "t_uint256"
          },
          {
            "astId": 3243,
            "contract": "contracts/JobMarketplace.sol:JobMarketplace",
            "label": "name",
            "offset": 0,
            "slot": "1",
            "type": "t_string_storage"
          },
          {
            "astId": 3245,
            "contract": "contracts/JobMarketplace.sol:JobMarketplace",
            "label": "cost",
            "offset": 0,
            "slot": "2",
            "type": "t_uint256"
          },
          {
            "astId": 3247,
            "contract": "contracts/JobMarketplace.sol:JobMarketplace",
            "label": "isOwned",
            "offset": 0,
            "slot": "3",
            "type": "t_bool"
          }
        ],
        "numberOfBytes": "128"
      },
      "t_uint256": {
        "encoding": "inplace",
        "label": "uint256",
        "numberOfBytes": "32"
      }
    }
  }
}