{
  "address": "0x5FbDB2315678afecb367f032d93F642f64180aa3",
  "abi": [
    {
      "inputs": [
        {
          "internalType": "string",
          "name": "_name",
          "type": "string"
        },
        {
          "internalType": "string",
          "name": "_symbol",
          "type": "string"
        }
      ],
      "stateMutability": "nonpayable",
      "type": "constructor"
    },
    {
      "anonymous": false,
      "inputs": [
        {
          "indexed": true,
          "internalType": "address",
          "name": "owner",
          "type": "address"
        },
        {
          "indexed": true,
          "internalType": "address",
          "name": "approved",
          "type": "address"
        },
        {
          "indexed": true,
          "internalType": "uint256",
          "name": "tokenId",
          "type": "uint256"
        }
      ],
      "name": "Approval",
      "type": "event"
    },
    {
      "anonymous": false,
      "inputs": [
        {
          "indexed": true,
          "internalType": "address",
          "name": "owner",
          "type": "address"
        },
        {
          "indexed": true,
          "internalType": "address",
          "name": "operator",
          "type": "address"
        },
        {
          "indexed": false,
          "internalType": "bool",
          "name": "approved",
          "type": "bool"
        }
      ],
      "name": "ApprovalForAll",
      "type": "event"
    },
    {
      "anonymous": false,
      "inputs": [
        {
          "indexed": true,
          "internalType": "address",
          "name": "from",
          "type": "address"
        },
        {
          "indexed": true,
          "internalType": "address",
          "name": "to",
          "type": "address"
        },
        {
          "indexed": true,
          "internalType": "uint256",
          "name": "tokenId",
          "type": "uint256"
        }
      ],
      "name": "Transfer",
      "type": "event"
    },
    {
      "inputs": [
        {
          "internalType": "address",
          "name": "to",
          "type": "address"
        },
        {
          "internalType": "uint256",
          "name": "tokenId",
          "type": "uint256"
        }
      ],
      "name": "approve",
      "outputs": [],
      "stateMutability": "nonpayable",
      "type": "function"
    },
    {
      "inputs": [
        {
          "internalType": "address",
          "name": "owner",
          "type": "address"
        }
      ],
      "name": "balanceOf",
      "outputs": [
        {
          "internalType": "uint256",
          "name": "",
          "type": "uint256"
        }
      ],
      "stateMutability": "view",
      "type": "function"
    },
    {
      "inputs": [
        {
          "internalType": "uint256",
          "name": "tokenId",
          "type": "uint256"
        }
      ],
      "name": "getApproved",
      "outputs": [
        {
          "internalType": "address",
          "name": "",
          "type": "address"
        }
      ],
      "stateMutability": "view",
      "type": "function"
    },
    {
      "inputs": [],
      "name": "getBalance",
      "outputs": [
        {
          "internalType": "uint256",
          "name": "",
          "type": "uint256"
        }
      ],
      "stateMutability": "view",
      "type": "function"
    },
    {
      "inputs": [
        {
          "internalType": "uint256",
          "name": "_id",
          "type": "uint256"
        }
      ],
      "name": "getJob",
      "outputs": [
        {
          "components": [
            {
              "internalType": "uint256",
              "name": "id",
              "type": "uint256"
            },
            {
              "internalType": "string",
              "name": "name",
              "type": "string"
            },
            {
              "internalType": "uint256",
              "name": "cost",
              "type": "uint256"
            },
            {
              "internalType": "bool",
              "name": "isOwned",
              "type": "bool"
            }
          ],
          "internalType": "struct JobMarketplace.Job",
          "name": "",
          "type": "tuple"
        }
      ],
      "stateMutability": "view",
      "type": "function"
    },
    {
      "inputs": [
        {
          "internalType": "address",
          "name": "owner",
          "type": "address"
        },
        {
          "internalType": "address",
          "name": "operator",
          "type": "address"
        }
      ],
      "name": "isApprovedForAll",
      "outputs": [
        {
          "internalType": "bool",
          "name": "",
          "type": "bool"
        }
      ],
      "stateMutability": "view",
      "type": "function"
    },
    {
      "inputs": [
        {
          "internalType": "string",
          "name": "_name",
          "type": "string"
        },
        {
          "internalType": "uint256",
          "name": "_cost",
          "type": "uint256"
        }
      ],
      "name": "list",
      "outputs": [],
      "stateMutability": "nonpayable",
      "type": "function"
    },
    {
      "inputs": [],
      "name": "maxSupply",
      "outputs": [
        {
          "internalType": "uint256",
          "name": "",
          "type": "uint256"
        }
      ],
      "stateMutability": "view",
      "type": "function"
    },
    {
      "inputs": [
        {
          "internalType": "uint256",
          "name": "_id",
          "type": "uint256"
        }
      ],
      "name": "mint",
      "outputs": [],
      "stateMutability": "payable",
      "type": "function"
    },
    {
      "inputs": [],
      "name": "name",
      "outputs": [
        {
          "internalType": "string",
          "name": "",
          "type": "string"
        }
      ],
      "stateMutability": "view",
      "type": "function"
    },
    {
      "inputs": [],
      "name": "owner",
      "outputs": [
        {
          "internalType": "address",
          "name": "",
          "type": "address"
        }
      ],
      "stateMutability": "view",
      "type": "function"
    },
    {
      "inputs": [
        {
          "internalType": "uint256",
          "name": "tokenId",
          "type": "uint256"
        }
      ],
      "name": "ownerOf",
      "outputs": [
        {
          "internalType": "address",
          "name": "",
          "type": "address"
        }
      ],
      "stateMutability": "view",
      "type": "function"
    },
    {
      "inputs": [
        {
          "internalType": "address",
          "name": "from",
          "type": "address"
        },
        {
          "internalType": "address",
          "name": "to",
          "type": "address"
        },
        {
          "internalType": "uint256",
          "name": "tokenId",
          "type": "uint256"
        }
      ],
      "name": "safeTransferFrom",
      "outputs": [],
      "stateMutability": "nonpayable",
      "type": "function"
    },
    {
      "inputs": [
        {
          "internalType": "address",
          "name": "from",
          "type": "address"
        },
        {
          "internalType": "address",
          "name": "to",
          "type": "address"
        },
        {
          "internalType": "uint256",
          "name": "tokenId",
          "type": "uint256"
        },
        {
          "internalType": "bytes",
          "name": "data",
          "type": "bytes"
        }
      ],
      "name": "safeTransferFrom",
      "outputs": [],
      "stateMutability": "nonpayable",
      "type": "function"
    },
    {
      "inputs": [
        {
          "internalType": "address",
          "name": "operator",
          "type": "address"
        },
        {
          "internalType": "bool",
          "name": "approved",
          "type": "bool"
        }
      ],
      "name": "setApprovalForAll",
      "outputs": [],
      "stateMutability": "nonpayable",
      "type": "function"
    },
    {
      "inputs": [
        {
          "internalType": "bytes4",
          "name": "interfaceId",
          "type": "bytes4"
        }
      ],
      "name": "supportsInterface",
      "outputs": [
        {
          "internalType": "bool",
          "name": "",
          "type": "bool"
        }
      ],
      "stateMutability": "view",
      "type": "function"
    },
    {
      "inputs": [],
      "name": "symbol",
      "outputs": [
        {
          "internalType": "string",
          "name": "",
          "type": "string"
        }
      ],
      "stateMutability": "view",
      "type": "function"
    },
    {
      "inputs": [
        {
          "internalType": "uint256",
          "name": "tokenId",
          "type": "uint256"
        }
      ],
      "name": "tokenURI",
      "outputs": [
        {
          "internalType": "string",
          "name": "",
          "type": "string"
        }
      ],
      "stateMutability": "view",
      "type": "function"
    },
    {
      "inputs": [],
      "name": "totalSupply",
      "outputs": [
        {
          "internalType": "uint256",
          "name": "",
          "type": "uint256"
        }
      ],
      "stateMutability": "view",
      "type": "function"
    },
    {
      "inputs": [
        {
          "internalType": "address",
          "name": "from",
          "type": "address"
        },
        {
          "internalType": "address",
          "name": "to",
          "type": "address"
        },
        {
          "internalType": "uint256",
          "name": "tokenId",
          "type": "uint256"
        }
      ],
      "name": "transferFrom",
      "outputs": [],
      "stateMutability": "nonpayable",
      "type": "function"
    },
    {
      "inputs": [],
      "name": "withdraw",
      "outputs": [],
      "stateMutability": "nonpayable",
      "type": "function"
    }
  ],
  "transactionHash": "0x73ff26959d881ee2dace34dbc8e0255a05dfcfb539d908dd9c093355c3b2f082",
  "args": [
    "Job Marketplace",
    "JOBMP"
  ],
  "numDeployments": 1,
  "solcInputHash": "e7b567d8fb15611e78288d1d1d89a758",
  "bytecode": "0x60806040523480156200001157600080fd5b50604051620037923803806200379283398181016040528101906200003791906200023b565b818181600090816200004a91906200050b565b5080600190816200005c91906200050b565b50505033600860006101000a81548173ffffffffffffffffffffffffffffffffffffffff021916908373ffffffffffffffffffffffffffffffffffffffff1602179055505050620005f2565b6000604051905090565b600080fd5b600080fd5b600080fd5b600080fd5b6000601f19601f8301169050919050565b7f4e487b7100000000000000000000000000000000000000000000000000000000600052604160045260246000fd5b6200011182620000c6565b810181811067ffffffffffffffff82111715620001335762000132620000d7565b5b80604052505050565b600062000148620000a8565b905062000156828262000106565b919050565b600067ffffffffffffffff821115620001795762000178620000d7565b5b6200018482620000c6565b9050602081019050919050565b60005b83811015620001b157808201518184015260208101905062000194565b60008484015250505050565b6000620001d4620001ce846200015b565b6200013c565b905082815260208101848484011115620001f357620001f2620000c1565b5b6200020084828562000191565b509392505050565b600082601f83011262000220576200021f620000bc565b5b815162000232848260208601620001bd565b91505092915050565b60008060408385031215620002555762000254620000b2565b5b600083015167ffffffffffffffff811115620002765762000275620000b7565b5b620002848582860162000208565b925050602083015167ffffffffffffffff811115620002a857620002a7620000b7565b5b620002b68582860162000208565b9150509250929050565b600081519050919050565b7f4e487b7100000000000000000000000000000000000000000000000000000000600052602260045260246000fd5b600060028204905060018216806200031357607f821691505b602082108103620003295762000328620002cb565b5b50919050565b60008190508160005260206000209050919050565b60006020601f8301049050919050565b600082821b905092915050565b600060088302620003937fffffffffffffffffffffffffffffffffffffffffffffffffffffffffffffffff8262000354565b6200039f868362000354565b95508019841693508086168417925050509392505050565b6000819050919050565b6000819050919050565b6000620003ec620003e6620003e084620003b7565b620003c1565b620003b7565b9050919050565b6000819050919050565b6200040883620003cb565b620004206200041782620003f3565b84845462000361565b825550505050565b600090565b6200043762000428565b62000444818484620003fd565b505050565b5b818110156200046c57620004606000826200042d565b6001810190506200044a565b5050565b601f821115620004bb5762000485816200032f565b620004908462000344565b81016020851015620004a0578190505b620004b8620004af8562000344565b83018262000449565b50505b505050565b600082821c905092915050565b6000620004e060001984600802620004c0565b1980831691505092915050565b6000620004fb8383620004cd565b9150826002028217905092915050565b6200051682620002c0565b67ffffffffffffffff811115620005325762000531620000d7565b5b6200053e8254620002fa565b6200054b82828562000470565b600060209050601f8311600181146200058357600084156200056e578287015190505b6200057a8582620004ed565b865550620005ea565b601f19841662000593866200032f565b60005b82811015620005bd5784890151825560018201915060208501945060208101905062000596565b86831015620005dd5784890151620005d9601f891682620004cd565b8355505b6001600288020188555050505b505050505050565b61319080620006026000396000f3fe60806040526004361061012a5760003560e01c80636352211e116100ab578063a22cb4651161006f578063a22cb465146103d1578063b88d4fde146103fa578063bf22c45714610423578063c87b56dd14610460578063d5abeb011461049d578063e985e9c5146104c85761012a565b80636352211e146102e557806370a08231146103225780638da5cb5b1461035f57806395d89b411461038a578063a0712d68146103b55761012a565b806318160ddd116100f257806318160ddd1461022857806323b872dd146102535780633ccfd60b1461027c57806342842e0e146102935780634a878dfa146102bc5761012a565b806301ffc9a71461012f57806306fdde031461016c578063081812fc14610197578063095ea7b3146101d457806312065fe0146101fd575b600080fd5b34801561013b57600080fd5b5061015660048036038101906101519190611eff565b610505565b6040516101639190611f47565b60405180910390f35b34801561017857600080fd5b506101816105e7565b60405161018e9190611ff2565b60405180910390f35b3480156101a357600080fd5b506101be60048036038101906101b9919061204a565b610679565b6040516101cb91906120b8565b60405180910390f35b3480156101e057600080fd5b506101fb60048036038101906101f691906120ff565b6106bf565b005b34801561020957600080fd5b506102126107d6565b60405161021f919061214e565b60405180910390f35b34801561023457600080fd5b5061023d6107de565b60405161024a919061214e565b60405180910390f35b34801561025f57600080fd5b5061027a60048036038101906102759190612169565b6107e4565b005b34801561028857600080fd5b50610291610844565b005b34801561029f57600080fd5b506102ba60048036038101906102b59190612169565b610939565b005b3480156102c857600080fd5b506102e360048036038101906102de91906122f1565b610959565b005b3480156102f157600080fd5b5061030c6004803603810190610307919061204a565b610a57565b60405161031991906120b8565b60405180910390f35b34801561032e57600080fd5b506103496004803603810190610344919061234d565b610add565b604051610356919061214e565b60405180910390f35b34801561036b57600080fd5b50610374610b94565b60405161038191906120b8565b60405180910390f35b34801561039657600080fd5b5061039f610bba565b6040516103ac9190611ff2565b60405180910390f35b6103cf60048036038101906103ca919061204a565b610c4c565b005b3480156103dd57600080fd5b506103f860048036038101906103f391906123a6565b610d13565b005b34801561040657600080fd5b50610421600480360381019061041c9190612487565b610d29565b005b34801561042f57600080fd5b5061044a6004803603810190610445919061204a565b610d8b565b60405161045791906125d5565b60405180910390f35b34801561046c57600080fd5b506104876004803603810190610482919061204a565b610e79565b6040516104949190611ff2565b60405180910390f35b3480156104a957600080fd5b506104b2610ee1565b6040516104bf919061214e565b60405180910390f35b3480156104d457600080fd5b506104ef60048036038101906104ea91906125f7565b610ee7565b6040516104fc9190611f47565b60405180910390f35b60007f80ac58cd000000000000000000000000000000000000000000000000000000007bffffffffffffffffffffffffffffffffffffffffffffffffffffffff1916827bffffffffffffffffffffffffffffffffffffffffffffffffffffffff191614806105d057507f5b5e139f000000000000000000000000000000000000000000000000000000007bffffffffffffffffffffffffffffffffffffffffffffffffffffffff1916827bffffffffffffffffffffffffffffffffffffffffffffffffffffffff1916145b806105e057506105df82610f7b565b5b9050919050565b6060600080546105f690612666565b80601f016020809104026020016040519081016040528092919081815260200182805461062290612666565b801561066f5780601f106106445761010080835404028352916020019161066f565b820191906000526020600020905b81548152906001019060200180831161065257829003601f168201915b5050505050905090565b600061068482610fe5565b6004600083815260200190815260200160002060009054906101000a900473ffffffffffffffffffffffffffffffffffffffff169050919050565b60006106ca82610a57565b90508073ffffffffffffffffffffffffffffffffffffffff168373ffffffffffffffffffffffffffffffffffffffff160361073a576040517f08c379a000000000000000000000000000000000000000000000000000000000815260040161073190612709565b60405180910390fd5b8073ffffffffffffffffffffffffffffffffffffffff16610759611030565b73ffffffffffffffffffffffffffffffffffffffff161480610788575061078781610782611030565b610ee7565b5b6107c7576040517f08c379a00000000000000000000000000000000000000000000000000000000081526004016107be9061279b565b60405180910390fd5b6107d18383611038565b505050565b600047905090565b60075481565b6107f56107ef611030565b826110f1565b610834576040517f08c379a000000000000000000000000000000000000000000000000000000000815260040161082b9061282d565b60405180910390fd5b61083f838383611186565b505050565b600860009054906101000a900473ffffffffffffffffffffffffffffffffffffffff1673ffffffffffffffffffffffffffffffffffffffff163373ffffffffffffffffffffffffffffffffffffffff161461089e57600080fd5b6000600860009054906101000a900473ffffffffffffffffffffffffffffffffffffffff1673ffffffffffffffffffffffffffffffffffffffff16476040516108e69061287e565b60006040518083038185875af1925050503d8060008114610923576040519150601f19603f3d011682016040523d82523d6000602084013e610928565b606091505b505090508061093657600080fd5b50565b61095483838360405180602001604052806000815250610d29565b505050565b600860009054906101000a900473ffffffffffffffffffffffffffffffffffffffff1673ffffffffffffffffffffffffffffffffffffffff163373ffffffffffffffffffffffffffffffffffffffff16146109b357600080fd5b600660008154809291906109c6906128c2565b91905055506040518060800160405280600654815260200183815260200182815260200160001515815250600960006006548152602001908152602001600020600082015181600001556020820151816001019081610a259190612ab6565b506040820151816002015560608201518160030160006101000a81548160ff0219169083151502179055509050505050565b600080610a638361147f565b9050600073ffffffffffffffffffffffffffffffffffffffff168173ffffffffffffffffffffffffffffffffffffffff1603610ad4576040517f08c379a0000000000000000000000000000000000000000000000000000000008152600401610acb90612bd4565b60405180910390fd5b80915050919050565b60008073ffffffffffffffffffffffffffffffffffffffff168273ffffffffffffffffffffffffffffffffffffffff1603610b4d576040517f08c379a0000000000000000000000000000000000000000000000000000000008152600401610b4490612c66565b60405180910390fd5b600360008373ffffffffffffffffffffffffffffffffffffffff1673ffffffffffffffffffffffffffffffffffffffff168152602001908152602001600020549050919050565b600860009054906101000a900473ffffffffffffffffffffffffffffffffffffffff1681565b606060018054610bc990612666565b80601f0160208091040260200160405190810160405280929190818152602001828054610bf590612666565b8015610c425780601f10610c1757610100808354040283529160200191610c42565b820191906000526020600020905b815481529060010190602001808311610c2557829003601f168201915b5050505050905090565b60008103610c5957600080fd5b600654811115610c6857600080fd5b600015156009600083815260200190815260200160002060030160009054906101000a900460ff16151514610c9c57600080fd5b6009600082815260200190815260200160002060020154341015610cbf57600080fd5b60016009600083815260200190815260200160002060030160006101000a81548160ff02191690831515021790555060076000815480929190610d01906128c2565b9190505550610d1033826114bc565b50565b610d25610d1e611030565b83836114da565b5050565b610d3a610d34611030565b836110f1565b610d79576040517f08c379a0000000000000000000000000000000000000000000000000000000008152600401610d709061282d565b60405180910390fd5b610d8584848484611646565b50505050565b610d93611e69565b6009600083815260200190815260200160002060405180608001604052908160008201548152602001600182018054610dcb90612666565b80601f0160208091040260200160405190810160405280929190818152602001828054610df790612666565b8015610e445780601f10610e1957610100808354040283529160200191610e44565b820191906000526020600020905b815481529060010190602001808311610e2757829003601f168201915b50505050508152602001600282015481526020016003820160009054906101000a900460ff1615151515815250509050919050565b6060610e8482610fe5565b6000610e8e6116a2565b90506000815111610eae5760405180602001604052806000815250610ed9565b80610eb8846116b9565b604051602001610ec9929190612cc2565b6040516020818303038152906040525b915050919050565b60065481565b6000600560008473ffffffffffffffffffffffffffffffffffffffff1673ffffffffffffffffffffffffffffffffffffffff16815260200190815260200160002060008373ffffffffffffffffffffffffffffffffffffffff1673ffffffffffffffffffffffffffffffffffffffff16815260200190815260200160002060009054906101000a900460ff16905092915050565b60007f01ffc9a7000000000000000000000000000000000000000000000000000000007bffffffffffffffffffffffffffffffffffffffffffffffffffffffff1916827bffffffffffffffffffffffffffffffffffffffffffffffffffffffff1916149050919050565b610fee81611787565b61102d576040517f08c379a000000000000000000000000000000000000000000000000000000000815260040161102490612bd4565b60405180910390fd5b50565b600033905090565b816004600083815260200190815260200160002060006101000a81548173ffffffffffffffffffffffffffffffffffffffff021916908373ffffffffffffffffffffffffffffffffffffffff160217905550808273ffffffffffffffffffffffffffffffffffffffff166110ab83610a57565b73ffffffffffffffffffffffffffffffffffffffff167f8c5be1e5ebec7d5bd14f71427d1e84f3dd0314c0f7b2291e5b200ac8c7c3b92560405160405180910390a45050565b6000806110fd83610a57565b90508073ffffffffffffffffffffffffffffffffffffffff168473ffffffffffffffffffffffffffffffffffffffff16148061113f575061113e8185610ee7565b5b8061117d57508373ffffffffffffffffffffffffffffffffffffffff1661116584610679565b73ffffffffffffffffffffffffffffffffffffffff16145b91505092915050565b8273ffffffffffffffffffffffffffffffffffffffff166111a682610a57565b73ffffffffffffffffffffffffffffffffffffffff16146111fc576040517f08c379a00000000000000000000000000000000000000000000000000000000081526004016111f390612d58565b60405180910390fd5b600073ffffffffffffffffffffffffffffffffffffffff168273ffffffffffffffffffffffffffffffffffffffff160361126b576040517f08c379a000000000000000000000000000000000000000000000000000000000815260040161126290612dea565b60405180910390fd5b61127883838360016117c8565b8273ffffffffffffffffffffffffffffffffffffffff1661129882610a57565b73ffffffffffffffffffffffffffffffffffffffff16146112ee576040517f08c379a00000000000000000000000000000000000000000000000000000000081526004016112e590612d58565b60405180910390fd5b6004600082815260200190815260200160002060006101000a81549073ffffffffffffffffffffffffffffffffffffffff02191690556001600360008573ffffffffffffffffffffffffffffffffffffffff1673ffffffffffffffffffffffffffffffffffffffff168152602001908152602001600020600082825403925050819055506001600360008473ffffffffffffffffffffffffffffffffffffffff1673ffffffffffffffffffffffffffffffffffffffff16815260200190815260200160002060008282540192505081905550816002600083815260200190815260200160002060006101000a81548173ffffffffffffffffffffffffffffffffffffffff021916908373ffffffffffffffffffffffffffffffffffffffff160217905550808273ffffffffffffffffffffffffffffffffffffffff168473ffffffffffffffffffffffffffffffffffffffff167fddf252ad1be2c89b69c2b068fc378daa952ba7f163c4a11628f55a4df523b3ef60405160405180910390a461147a83838360016118ee565b505050565b60006002600083815260200190815260200160002060009054906101000a900473ffffffffffffffffffffffffffffffffffffffff169050919050565b6114d68282604051806020016040528060008152506118f4565b5050565b8173ffffffffffffffffffffffffffffffffffffffff168373ffffffffffffffffffffffffffffffffffffffff1603611548576040517f08c379a000000000000000000000000000000000000000000000000000000000815260040161153f90612e56565b60405180910390fd5b80600560008573ffffffffffffffffffffffffffffffffffffffff1673ffffffffffffffffffffffffffffffffffffffff16815260200190815260200160002060008473ffffffffffffffffffffffffffffffffffffffff1673ffffffffffffffffffffffffffffffffffffffff16815260200190815260200160002060006101000a81548160ff0219169083151502179055508173ffffffffffffffffffffffffffffffffffffffff168373ffffffffffffffffffffffffffffffffffffffff167f17307eab39ab6107e8899845ad3d59bd9653f200f220920489ca2b5937696c31836040516116399190611f47565b60405180910390a3505050565b611651848484611186565b61165d8484848461194f565b61169c576040517f08c379a000000000000000000000000000000000000000000000000000000000815260040161169390612ee8565b60405180910390fd5b50505050565b606060405180602001604052806000815250905090565b6060600060016116c884611ad6565b01905060008167ffffffffffffffff8111156116e7576116e66121c6565b5b6040519080825280601f01601f1916602001820160405280156117195781602001600182028036833780820191505090505b509050600082602001820190505b60011561177c578080600190039150507f3031323334353637383961626364656600000000000000000000000000000000600a86061a8153600a85816117705761176f612f08565b5b04945060008503611727575b819350505050919050565b60008073ffffffffffffffffffffffffffffffffffffffff166117a98361147f565b73ffffffffffffffffffffffffffffffffffffffff1614159050919050565b60018111156118e857600073ffffffffffffffffffffffffffffffffffffffff168473ffffffffffffffffffffffffffffffffffffffff161461185c5780600360008673ffffffffffffffffffffffffffffffffffffffff1673ffffffffffffffffffffffffffffffffffffffff16815260200190815260200160002060008282546118549190612f37565b925050819055505b600073ffffffffffffffffffffffffffffffffffffffff168373ffffffffffffffffffffffffffffffffffffffff16146118e75780600360008573ffffffffffffffffffffffffffffffffffffffff1673ffffffffffffffffffffffffffffffffffffffff16815260200190815260200160002060008282546118df9190612f6b565b925050819055505b5b50505050565b50505050565b6118fe8383611c29565b61190b600084848461194f565b61194a576040517f08c379a000000000000000000000000000000000000000000000000000000000815260040161194190612ee8565b60405180910390fd5b505050565b60006119708473ffffffffffffffffffffffffffffffffffffffff16611e46565b15611ac9578373ffffffffffffffffffffffffffffffffffffffff1663150b7a02611999611030565b8786866040518563ffffffff1660e01b81526004016119bb9493929190612ff4565b6020604051808303816000875af19250505080156119f757506040513d601f19601f820116820180604052508101906119f49190613055565b60015b611a79573d8060008114611a27576040519150601f19603f3d011682016040523d82523d6000602084013e611a2c565b606091505b506000815103611a71576040517f08c379a0000000000000000000000000000000000000000000000000000000008152600401611a6890612ee8565b60405180910390fd5b805181602001fd5b63150b7a0260e01b7bffffffffffffffffffffffffffffffffffffffffffffffffffffffff1916817bffffffffffffffffffffffffffffffffffffffffffffffffffffffff191614915050611ace565b600190505b949350505050565b600080600090507a184f03e93ff9f4daa797ed6e38ed64bf6a1f0100000000000000008310611b34577a184f03e93ff9f4daa797ed6e38ed64bf6a1f0100000000000000008381611b2a57611b29612f08565b5b0492506040810190505b6d04ee2d6d415b85acef81000000008310611b71576d04ee2d6d415b85acef81000000008381611b6757611b66612f08565b5b0492506020810190505b662386f26fc100008310611ba057662386f26fc100008381611b9657611b95612f08565b5b0492506010810190505b6305f5e1008310611bc9576305f5e1008381611bbf57611bbe612f08565b5b0492506008810190505b6127108310611bee576127108381611be457611be3612f08565b5b0492506004810190505b60648310611c115760648381611c0757611c06612f08565b5b0492506002810190505b600a8310611c20576001810190505b80915050919050565b600073ffffffffffffffffffffffffffffffffffffffff168273ffffffffffffffffffffffffffffffffffffffff1603611c98576040517f08c379a0000000000000000000000000000000000000000000000000000000008152600401611c8f906130ce565b60405180910390fd5b611ca181611787565b15611ce1576040517f08c379a0000000000000000000000000000000000000000000000000000000008152600401611cd89061313a565b60405180910390fd5b611cef6000838360016117c8565b611cf881611787565b15611d38576040517f08c379a0000000000000000000000000000000000000000000000000000000008152600401611d2f9061313a565b60405180910390fd5b6001600360008473ffffffffffffffffffffffffffffffffffffffff1673ffffffffffffffffffffffffffffffffffffffff16815260200190815260200160002060008282540192505081905550816002600083815260200190815260200160002060006101000a81548173ffffffffffffffffffffffffffffffffffffffff021916908373ffffffffffffffffffffffffffffffffffffffff160217905550808273ffffffffffffffffffffffffffffffffffffffff16600073ffffffffffffffffffffffffffffffffffffffff167fddf252ad1be2c89b69c2b068fc378daa952ba7f163c4a11628f55a4df523b3ef60405160405180910390a4611e426000838360016118ee565b5050565b6000808273ffffffffffffffffffffffffffffffffffffffff163b119050919050565b60405180608001604052806000815260200160608152602001600081526020016000151581525090565b6000604051905090565b600080fd5b600080fd5b60007fffffffff0000000000000000000000000000000000000000000000000000000082169050919050565b611edc81611ea7565b8114611ee757600080fd5b50565b600081359050611ef981611ed3565b92915050565b600060208284031215611f1557611f14611e9d565b5b6000611f2384828501611eea565b91505092915050565b60008115159050919050565b611f4181611f2c565b82525050565b6000602082019050611f5c6000830184611f38565b92915050565b600081519050919050565b600082825260208201905092915050565b60005b83811015611f9c578082015181840152602081019050611f81565b60008484015250505050565b6000601f19601f8301169050919050565b6000611fc482611f62565b611fce8185611f6d565b9350611fde818560208601611f7e565b611fe781611fa8565b840191505092915050565b6000602082019050818103600083015261200c8184611fb9565b905092915050565b6000819050919050565b61202781612014565b811461203257600080fd5b50565b6000813590506120448161201e565b92915050565b6000602082840312156120605761205f611e9d565b5b600061206e84828501612035565b91505092915050565b600073ffffffffffffffffffffffffffffffffffffffff82169050919050565b60006120a282612077565b9050919050565b6120b281612097565b82525050565b60006020820190506120cd60008301846120a9565b92915050565b6120dc81612097565b81146120e757600080fd5b50565b6000813590506120f9816120d3565b92915050565b6000806040838503121561211657612115611e9d565b5b6000612124858286016120ea565b925050602061213585828601612035565b9150509250929050565b61214881612014565b82525050565b6000602082019050612163600083018461213f565b92915050565b60008060006060848603121561218257612181611e9d565b5b6000612190868287016120ea565b93505060206121a1868287016120ea565b92505060406121b286828701612035565b9150509250925092565b600080fd5b600080fd5b7f4e487b7100000000000000000000000000000000000000000000000000000000600052604160045260246000fd5b6121fe82611fa8565b810181811067ffffffffffffffff8211171561221d5761221c6121c6565b5b80604052505050565b6000612230611e93565b905061223c82826121f5565b919050565b600067ffffffffffffffff82111561225c5761225b6121c6565b5b61226582611fa8565b9050602081019050919050565b82818337600083830152505050565b600061229461228f84612241565b612226565b9050828152602081018484840111156122b0576122af6121c1565b5b6122bb848285612272565b509392505050565b600082601f8301126122d8576122d76121bc565b5b81356122e8848260208601612281565b91505092915050565b6000806040838503121561230857612307611e9d565b5b600083013567ffffffffffffffff81111561232657612325611ea2565b5b612332858286016122c3565b925050602061234385828601612035565b9150509250929050565b60006020828403121561236357612362611e9d565b5b6000612371848285016120ea565b91505092915050565b61238381611f2c565b811461238e57600080fd5b50565b6000813590506123a08161237a565b92915050565b600080604083850312156123bd576123bc611e9d565b5b60006123cb858286016120ea565b92505060206123dc85828601612391565b9150509250929050565b600067ffffffffffffffff821115612401576124006121c6565b5b61240a82611fa8565b9050602081019050919050565b600061242a612425846123e6565b612226565b905082815260208101848484011115612446576124456121c1565b5b612451848285612272565b509392505050565b600082601f83011261246e5761246d6121bc565b5b813561247e848260208601612417565b91505092915050565b600080600080608085870312156124a1576124a0611e9d565b5b60006124af878288016120ea565b94505060206124c0878288016120ea565b93505060406124d187828801612035565b925050606085013567ffffffffffffffff8111156124f2576124f1611ea2565b5b6124fe87828801612459565b91505092959194509250565b61251381612014565b82525050565b600082825260208201905092915050565b600061253582611f62565b61253f8185612519565b935061254f818560208601611f7e565b61255881611fa8565b840191505092915050565b61256c81611f2c565b82525050565b600060808301600083015161258a600086018261250a565b50602083015184820360208601526125a2828261252a565b91505060408301516125b7604086018261250a565b5060608301516125ca6060860182612563565b508091505092915050565b600060208201905081810360008301526125ef8184612572565b905092915050565b6000806040838503121561260e5761260d611e9d565b5b600061261c858286016120ea565b925050602061262d858286016120ea565b9150509250929050565b7f4e487b7100000000000000000000000000000000000000000000000000000000600052602260045260246000fd5b6000600282049050600182168061267e57607f821691505b60208210810361269157612690612637565b5b50919050565b7f4552433732313a20617070726f76616c20746f2063757272656e74206f776e6560008201527f7200000000000000000000000000000000000000000000000000000000000000602082015250565b60006126f3602183611f6d565b91506126fe82612697565b604082019050919050565b60006020820190508181036000830152612722816126e6565b9050919050565b7f4552433732313a20617070726f76652063616c6c6572206973206e6f7420746f60008201527f6b656e206f776e6572206f7220617070726f76656420666f7220616c6c000000602082015250565b6000612785603d83611f6d565b915061279082612729565b604082019050919050565b600060208201905081810360008301526127b481612778565b9050919050565b7f4552433732313a2063616c6c6572206973206e6f7420746f6b656e206f776e6560008201527f72206f7220617070726f76656400000000000000000000000000000000000000602082015250565b6000612817602d83611f6d565b9150612822826127bb565b604082019050919050565b600060208201905081810360008301526128468161280a565b9050919050565b600081905092915050565b50565b600061286860008361284d565b915061287382612858565b600082019050919050565b60006128898261285b565b9150819050919050565b7f4e487b7100000000000000000000000000000000000000000000000000000000600052601160045260246000fd5b60006128cd82612014565b91507fffffffffffffffffffffffffffffffffffffffffffffffffffffffffffffffff82036128ff576128fe612893565b5b600182019050919050565b60008190508160005260206000209050919050565b60006020601f8301049050919050565b600082821b905092915050565b60006008830261296c7fffffffffffffffffffffffffffffffffffffffffffffffffffffffffffffffff8261292f565b612976868361292f565b95508019841693508086168417925050509392505050565b6000819050919050565b60006129b36129ae6129a984612014565b61298e565b612014565b9050919050565b6000819050919050565b6129cd83612998565b6129e16129d9826129ba565b84845461293c565b825550505050565b600090565b6129f66129e9565b612a018184846129c4565b505050565b5b81811015612a2557612a1a6000826129ee565b600181019050612a07565b5050565b601f821115612a6a57612a3b8161290a565b612a448461291f565b81016020851015612a53578190505b612a67612a5f8561291f565b830182612a06565b50505b505050565b600082821c905092915050565b6000612a8d60001984600802612a6f565b1980831691505092915050565b6000612aa68383612a7c565b9150826002028217905092915050565b612abf82611f62565b67ffffffffffffffff811115612ad857612ad76121c6565b5b612ae28254612666565b612aed828285612a29565b600060209050601f831160018114612b205760008415612b0e578287015190505b612b188582612a9a565b865550612b80565b601f198416612b2e8661290a565b60005b82811015612b5657848901518255600182019150602085019450602081019050612b31565b86831015612b735784890151612b6f601f891682612a7c565b8355505b6001600288020188555050505b505050505050565b7f4552433732313a20696e76616c696420746f6b656e2049440000000000000000600082015250565b6000612bbe601883611f6d565b9150612bc982612b88565b602082019050919050565b60006020820190508181036000830152612bed81612bb1565b9050919050565b7f4552433732313a2061646472657373207a65726f206973206e6f74206120766160008201527f6c6964206f776e65720000000000000000000000000000000000000000000000602082015250565b6000612c50602983611f6d565b9150612c5b82612bf4565b604082019050919050565b60006020820190508181036000830152612c7f81612c43565b9050919050565b600081905092915050565b6000612c9c82611f62565b612ca68185612c86565b9350612cb6818560208601611f7e565b80840191505092915050565b6000612cce8285612c91565b9150612cda8284612c91565b91508190509392505050565b7f4552433732313a207472616e736665722066726f6d20696e636f72726563742060008201527f6f776e6572000000000000000000000000000000000000000000000000000000602082015250565b6000612d42602583611f6d565b9150612d4d82612ce6565b604082019050919050565b60006020820190508181036000830152612d7181612d35565b9050919050565b7f4552433732313a207472616e7366657220746f20746865207a65726f2061646460008201527f7265737300000000000000000000000000000000000000000000000000000000602082015250565b6000612dd4602483611f6d565b9150612ddf82612d78565b604082019050919050565b60006020820190508181036000830152612e0381612dc7565b9050919050565b7f4552433732313a20617070726f766520746f2063616c6c657200000000000000600082015250565b6000612e40601983611f6d565b9150612e4b82612e0a565b602082019050919050565b60006020820190508181036000830152612e6f81612e33565b9050919050565b7f4552433732313a207472616e7366657220746f206e6f6e20455243373231526560008201527f63656976657220696d706c656d656e7465720000000000000000000000000000602082015250565b6000612ed2603283611f6d565b9150612edd82612e76565b604082019050919050565b60006020820190508181036000830152612f0181612ec5565b9050919050565b7f4e487b7100000000000000000000000000000000000000000000000000000000600052601260045260246000fd5b6000612f4282612014565b9150612f4d83612014565b9250828203905081811115612f6557612f64612893565b5b92915050565b6000612f7682612014565b9150612f8183612014565b9250828201905080821115612f9957612f98612893565b5b92915050565b600081519050919050565b600082825260208201905092915050565b6000612fc682612f9f565b612fd08185612faa565b9350612fe0818560208601611f7e565b612fe981611fa8565b840191505092915050565b600060808201905061300960008301876120a9565b61301660208301866120a9565b613023604083018561213f565b81810360608301526130358184612fbb565b905095945050505050565b60008151905061304f81611ed3565b92915050565b60006020828403121561306b5761306a611e9d565b5b600061307984828501613040565b91505092915050565b7f4552433732313a206d696e7420746f20746865207a65726f2061646472657373600082015250565b60006130b8602083611f6d565b91506130c382613082565b602082019050919050565b600060208201905081810360008301526130e7816130ab565b9050919050565b7f4552433732313a20746f6b656e20616c7265616479206d696e74656400000000600082015250565b6000613124601c83611f6d565b915061312f826130ee565b602082019050919050565b6000602082019050818103600083015261315381613117565b905091905056fea2646970667358221220ba5113c8b0caf0585e42187134415d863979be3f256744e472eddd3ee166a07f64736f6c63430008110033",
  "devdoc": {
    "kind": "dev",
    "methods": {
      "approve(address,uint256)": {
        "details": "See {IERC721-approve}."
      },
      "balanceOf(address)": {
        "details": "See {IERC721-balanceOf}."
      },
      "getApproved(uint256)": {
        "details": "See {IERC721-getApproved}."
      },
      "isApprovedForAll(address,address)": {
        "details": "See {IERC721-isApprovedForAll}."
      },
      "name()": {
        "details": "See {IERC721Metadata-name}."
      },
      "ownerOf(uint256)": {
        "details": "See {IERC721-ownerOf}."
      },
      "safeTransferFrom(address,address,uint256)": {
        "details": "See {IERC721-safeTransferFrom}."
      },
      "safeTransferFrom(address,address,uint256,bytes)": {
        "details": "See {IERC721-safeTransferFrom}."
      },
      "setApprovalForAll(address,bool)": {
        "details": "See {IERC721-setApprovalForAll}."
      },
      "supportsInterface(bytes4)": {
        "details": "See {IERC165-supportsInterface}."
      },
      "symbol()": {
        "details": "See {IERC721Metadata-symbol}."
      },
      "tokenURI(uint256)": {
        "details": "See {IERC721Metadata-tokenURI}."
      },
      "transferFrom(address,address,uint256)": {
        "details": "See {IERC721-transferFrom}."
      }
    },
    "version": 1
  },
  "userdoc": {
    "kind": "user",
    "methods": {},
    "version": 1
  },
  "storageLayout": {
    "storage": [
      {
        "astId": 25,
        "contract": "contracts/JobMarketplace.sol:JobMarketplace",
        "label": "_name",
        "offset": 0,
        "slot": "0",
        "type": "t_string_storage"
      },
      {
        "astId": 27,
        "contract": "contracts/JobMarketplace.sol:JobMarketplace",
        "label": "_symbol",
        "offset": 0,
        "slot": "1",
        "type": "t_string_storage"
      },
      {
        "astId": 31,
        "contract": "contracts/JobMarketplace.sol:JobMarketplace",
        "label": "_owners",
        "offset": 0,
        "slot": "2",
        "type": "t_mapping(t_uint256,t_address)"
      },
      {
        "astId": 35,
        "contract": "contracts/JobMarketplace.sol:JobMarketplace",
        "label": "_balances",
        "offset": 0,
        "slot": "3",
        "type": "t_mapping(t_address,t_uint256)"
      },
      {
        "astId": 39,
        "contract": "contracts/JobMarketplace.sol:JobMarketplace",
        "label": "_tokenApprovals",
        "offset": 0,
        "slot": "4",
        "type": "t_mapping(t_uint256,t_address)"
      },
      {
        "astId": 45,
        "contract": "contracts/JobMarketplace.sol:JobMarketplace",
        "label": "_operatorApprovals",
        "offset": 0,
        "slot": "5",
        "type": "t_mapping(t_address,t_mapping(t_address,t_bool))"
      },
      {
        "astId": 2915,
        "contract": "contracts/JobMarketplace.sol:JobMarketplace",
        "label": "maxSupply",
        "offset": 0,
        "slot": "6",
        "type": "t_uint256"
      },
      {
        "astId": 2917,
        "contract": "contracts/JobMarketplace.sol:JobMarketplace",
        "label": "totalSupply",
        "offset": 0,
        "slot": "7",
        "type": "t_uint256"
      },
      {
        "astId": 2919,
        "contract": "contracts/JobMarketplace.sol:JobMarketplace",
        "label": "owner",
        "offset": 0,
        "slot": "8",
        "type": "t_address"
      },
      {
        "astId": 2933,
        "contract": "contracts/JobMarketplace.sol:JobMarketplace",
        "label": "jobs",
        "offset": 0,
        "slot": "9",
        "type": "t_mapping(t_uint256,t_struct(Job)2928_storage)"
      }
    ],
    "types": {
      "t_address": {
        "encoding": "inplace",
        "label": "address",
        "numberOfBytes": "20"
      },
      "t_bool": {
        "encoding": "inplace",
        "label": "bool",
        "numberOfBytes": "1"
      },
      "t_mapping(t_address,t_bool)": {
        "encoding": "mapping",
        "key": "t_address",
        "label": "mapping(address => bool)",
        "numberOfBytes": "32",
        "value": "t_bool"
      },
      "t_mapping(t_address,t_mapping(t_address,t_bool))": {
        "encoding": "mapping",
        "key": "t_address",
        "label": "mapping(address => mapping(address => bool))",
        "numberOfBytes": "32",
        "value": "t_mapping(t_address,t_bool)"
      },
      "t_mapping(t_address,t_uint256)": {
        "encoding": "mapping",
        "key": "t_address",
        "label": "mapping(address => uint256)",
        "numberOfBytes": "32",
        "value": "t_uint256"
      },
      "t_mapping(t_uint256,t_address)": {
        "encoding": "mapping",
        "key": "t_uint256",
        "label": "mapping(uint256 => address)",
        "numberOfBytes": "32",
        "value": "t_address"
      },
      "t_mapping(t_uint256,t_struct(Job)2928_storage)": {
        "encoding": "mapping",
        "key": "t_uint256",
        "label": "mapping(uint256 => struct JobMarketplace.Job)",
        "numberOfBytes": "32",
        "value": "t_struct(Job)2928_storage"
      },
      "t_string_storage": {
        "encoding": "bytes",
        "label": "string",
        "numberOfBytes": "32"
      },
      "t_struct(Job)2928_storage": {
        "encoding": "inplace",
        "label": "struct JobMarketplace.Job",
        "members": [
          {
            "astId": 2921,
            "contract": "contracts/JobMarketplace.sol:JobMarketplace",
            "label": "id",
            "offset": 0,
            "slot": "0",
            "type": "t_uint256"
          },
          {
            "astId": 2923,
            "contract": "contracts/JobMarketplace.sol:JobMarketplace",
            "label": "name",
            "offset": 0,
            "slot": "1",
            "type": "t_string_storage"
          },
          {
            "astId": 2925,
            "contract": "contracts/JobMarketplace.sol:JobMarketplace",
            "label": "cost",
            "offset": 0,
            "slot": "2",
            "type": "t_uint256"
          },
          {
            "astId": 2927,
            "contract": "contracts/JobMarketplace.sol:JobMarketplace",
            "label": "isOwned",
            "offset": 0,
            "slot": "3",
            "type": "t_bool"
          }
        ],
        "numberOfBytes": "128"
      },
      "t_uint256": {
        "encoding": "inplace",
        "label": "uint256",
        "numberOfBytes": "32"
      }
    }
  }
}